{
  "_format": "hh-sol-artifact-1",
  "contractName": "CurateAIVote",
  "sourceName": "contracts/vote.sol",
  "abi": [
    {
      "inputs": [
        {
          "internalType": "address",
          "name": "_tokenAddress",
          "type": "address"
        },
        {
          "internalType": "address",
          "name": "_roleManager",
          "type": "address"
        },
        {
          "internalType": "address",
          "name": "_postContract",
          "type": "address"
        }
      ],
      "stateMutability": "nonpayable",
      "type": "constructor"
    },
    {
      "anonymous": false,
      "inputs": [
        {
          "indexed": true,
          "internalType": "uint256",
          "name": "postId",
          "type": "uint256"
        },
        {
          "indexed": true,
          "internalType": "address",
          "name": "voter",
          "type": "address"
        },
        {
          "indexed": false,
          "internalType": "uint256",
          "name": "amount",
          "type": "uint256"
        }
      ],
      "name": "Voted",
      "type": "event"
    },
    {
      "inputs": [],
      "name": "AI_AGENT_ROLE",
      "outputs": [
        {
          "internalType": "bytes32",
          "name": "",
          "type": "bytes32"
        }
      ],
      "stateMutability": "view",
      "type": "function"
    },
    {
      "inputs": [],
      "name": "CURATOR_ROLE",
      "outputs": [
        {
          "internalType": "bytes32",
          "name": "",
          "type": "bytes32"
        }
      ],
      "stateMutability": "view",
      "type": "function"
    },
    {
      "inputs": [],
      "name": "SETTLEMENT_ROLE",
      "outputs": [
        {
          "internalType": "bytes32",
          "name": "",
          "type": "bytes32"
        }
      ],
      "stateMutability": "view",
      "type": "function"
    },
    {
      "inputs": [],
      "name": "VOTES_PER_DAY_MULTIPLIER",
      "outputs": [
        {
          "internalType": "uint256",
          "name": "",
          "type": "uint256"
        }
      ],
      "stateMutability": "view",
      "type": "function"
    },
    {
      "inputs": [],
      "name": "VOTING_CONTRACT",
      "outputs": [
        {
          "internalType": "bytes32",
          "name": "",
          "type": "bytes32"
        }
      ],
      "stateMutability": "view",
      "type": "function"
    },
    {
      "inputs": [
        {
          "internalType": "uint256",
          "name": "postId",
          "type": "uint256"
        },
        {
          "internalType": "uint256",
          "name": "amount",
          "type": "uint256"
        }
      ],
      "name": "aiVote",
      "outputs": [],
      "stateMutability": "nonpayable",
      "type": "function"
    },
    {
      "inputs": [
        {
          "internalType": "address",
          "name": "user",
          "type": "address"
        }
      ],
      "name": "clearUserVoteDays",
      "outputs": [],
      "stateMutability": "nonpayable",
      "type": "function"
    },
    {
      "inputs": [
        {
          "internalType": "address",
          "name": "",
          "type": "address"
        },
        {
          "internalType": "uint256",
          "name": "",
          "type": "uint256"
        }
      ],
      "name": "dailyAuthorVotes",
      "outputs": [
        {
          "internalType": "uint256",
          "name": "",
          "type": "uint256"
        }
      ],
      "stateMutability": "view",
      "type": "function"
    },
    {
      "inputs": [
        {
          "internalType": "uint256",
          "name": "",
          "type": "uint256"
        },
        {
          "internalType": "uint256",
          "name": "",
          "type": "uint256"
        }
      ],
      "name": "dailyPostVotes",
      "outputs": [
        {
          "internalType": "uint256",
          "name": "",
          "type": "uint256"
        }
      ],
      "stateMutability": "view",
      "type": "function"
    },
    {
      "inputs": [
        {
          "internalType": "uint256",
          "name": "",
          "type": "uint256"
        }
      ],
      "name": "dailyVoteTotals",
      "outputs": [
        {
          "internalType": "uint256",
          "name": "",
          "type": "uint256"
        }
      ],
      "stateMutability": "view",
      "type": "function"
    },
    {
      "inputs": [
        {
          "internalType": "uint256",
          "name": "day",
          "type": "uint256"
        },
        {
          "internalType": "address",
          "name": "author",
          "type": "address"
        }
      ],
      "name": "getAuthorVotes",
      "outputs": [
        {
          "internalType": "uint256",
          "name": "",
          "type": "uint256"
        }
      ],
      "stateMutability": "view",
      "type": "function"
    },
    {
      "inputs": [
        {
          "internalType": "uint256",
          "name": "day",
          "type": "uint256"
        }
      ],
      "name": "getDailyTotalVotes",
      "outputs": [
        {
          "internalType": "uint256",
          "name": "",
          "type": "uint256"
        }
      ],
      "stateMutability": "view",
      "type": "function"
    },
    {
      "inputs": [],
      "name": "getTotalVotes",
      "outputs": [
        {
          "internalType": "uint256",
          "name": "",
          "type": "uint256"
        }
      ],
      "stateMutability": "view",
      "type": "function"
    },
    {
      "inputs": [
        {
          "internalType": "address",
          "name": "user",
          "type": "address"
        }
      ],
      "name": "getUserVoteDays",
      "outputs": [
        {
          "internalType": "uint256[]",
          "name": "",
          "type": "uint256[]"
        }
      ],
      "stateMutability": "view",
      "type": "function"
    },
    {
      "inputs": [
        {
          "internalType": "address",
          "name": "",
          "type": "address"
        }
      ],
      "name": "lastVoteResetTime",
      "outputs": [
        {
          "internalType": "uint256",
          "name": "",
          "type": "uint256"
        }
      ],
      "stateMutability": "view",
      "type": "function"
    },
    {
      "inputs": [],
      "name": "postContract",
      "outputs": [
        {
          "internalType": "contract ICurateAIPost",
          "name": "",
          "type": "address"
        }
      ],
      "stateMutability": "view",
      "type": "function"
    },
    {
      "inputs": [],
      "name": "roleManager",
      "outputs": [
        {
          "internalType": "contract IRoleManager",
          "name": "",
          "type": "address"
        }
      ],
      "stateMutability": "view",
      "type": "function"
    },
    {
      "inputs": [],
      "name": "token",
      "outputs": [
        {
          "internalType": "contract IContentMediaToken",
          "name": "",
          "type": "address"
        }
      ],
      "stateMutability": "view",
      "type": "function"
    },
    {
      "inputs": [
        {
          "internalType": "address",
          "name": "",
          "type": "address"
        },
        {
          "internalType": "uint256",
          "name": "",
          "type": "uint256"
        }
      ],
      "name": "userActiveDays",
      "outputs": [
        {
          "internalType": "uint256",
          "name": "",
          "type": "uint256"
        }
      ],
      "stateMutability": "view",
      "type": "function"
    },
    {
      "inputs": [
        {
          "internalType": "uint256",
          "name": "postId",
          "type": "uint256"
        },
        {
          "internalType": "uint256",
          "name": "amount",
          "type": "uint256"
        }
      ],
      "name": "vote",
      "outputs": [],
      "stateMutability": "nonpayable",
      "type": "function"
    },
    {
      "inputs": [
        {
          "internalType": "address",
          "name": "",
          "type": "address"
        }
      ],
      "name": "votesUsedToday",
      "outputs": [
        {
          "internalType": "uint256",
          "name": "",
          "type": "uint256"
        }
      ],
      "stateMutability": "view",
      "type": "function"
    }
  ],
  "bytecode": "0x608060405234801561001057600080fd5b5060405161278d38038061278d833981810160405281019061003291906102ae565b81600073ffffffffffffffffffffffffffffffffffffffff168173ffffffffffffffffffffffffffffffffffffffff16036100a2576040517f08c379a00000000000000000000000000000000000000000000000000000000081526004016100999061035e565b60405180910390fd5b806000806101000a81548173ffffffffffffffffffffffffffffffffffffffff021916908373ffffffffffffffffffffffffffffffffffffffff16021790555050600073ffffffffffffffffffffffffffffffffffffffff168373ffffffffffffffffffffffffffffffffffffffff1603610152576040517f08c379a0000000000000000000000000000000000000000000000000000000008152600401610149906103ca565b60405180910390fd5b600073ffffffffffffffffffffffffffffffffffffffff168173ffffffffffffffffffffffffffffffffffffffff16036101c1576040517f08c379a00000000000000000000000000000000000000000000000000000000081526004016101b890610436565b60405180910390fd5b82600160006101000a81548173ffffffffffffffffffffffffffffffffffffffff021916908373ffffffffffffffffffffffffffffffffffffffff16021790555080600260006101000a81548173ffffffffffffffffffffffffffffffffffffffff021916908373ffffffffffffffffffffffffffffffffffffffff160217905550505050610456565b600080fd5b600073ffffffffffffffffffffffffffffffffffffffff82169050919050565b600061027b82610250565b9050919050565b61028b81610270565b811461029657600080fd5b50565b6000815190506102a881610282565b92915050565b6000806000606084860312156102c7576102c661024b565b5b60006102d586828701610299565b93505060206102e686828701610299565b92505060406102f786828701610299565b9150509250925092565b600082825260208201905092915050565b7f496e76616c696420526f6c654d616e6167657220616464726573730000000000600082015250565b6000610348601b83610301565b915061035382610312565b602082019050919050565b600060208201905081810360008301526103778161033b565b9050919050565b7f496e76616c696420746f6b656e20616464726573730000000000000000000000600082015250565b60006103b4601583610301565b91506103bf8261037e565b602082019050919050565b600060208201905081810360008301526103e3816103a7565b9050919050565b7f496e76616c696420706f737420636f6e74726163742061646472657373000000600082015250565b6000610420601d83610301565b915061042b826103ea565b602082019050919050565b6000602082019050818103600083015261044f81610413565b9050919050565b612328806104656000396000f3fe608060405234801561001057600080fd5b50600436106101365760003560e01c806397b62a72116100b8578063ba9cf01d1161007c578063ba9cf01d14610377578063cb436d3f14610395578063df99b336146103c5578063f2fb16db146103e3578063f8a4e6e214610413578063fc0c546a1461042f57610136565b806397b62a72146102bf5780639a0e7d66146102dd5780639d4d3db7146102fb578063b384abef1461032b578063b6b730811461034757610136565b806329ddf49c116100ff57806329ddf49c1461020757806340f5fe2b146102375780634a2cfb54146102535780634ad65106146102715780636ebe8f991461028f57610136565b8062435da51461013b5780630706e5bd14610159578063173573e8146101895780631d148f55146101b957806325b8e7eb146101e9575b600080fd5b61014361044d565b60405161015091906117b7565b60405180910390f35b610173600480360381019061016e9190611824565b610471565b6040516101809190611919565b60405180910390f35b6101a3600480360381019061019e9190611967565b610508565b6040516101b091906119a3565b60405180910390f35b6101d360048036038101906101ce91906119be565b610520565b6040516101e091906119a3565b60405180910390f35b6101f1610551565b6040516101fe9190611a17565b60405180910390f35b610221600480360381019061021c9190611967565b610575565b60405161022e91906119a3565b60405180910390f35b610251600480360381019061024c9190611824565b610592565b005b61025b6106dd565b6040516102689190611a17565b60405180910390f35b610279610701565b6040516102869190611a53565b60405180910390f35b6102a960048036038101906102a49190611824565b610727565b6040516102b691906119a3565b60405180910390f35b6102c761073f565b6040516102d49190611a17565b60405180910390f35b6102e5610763565b6040516102f291906119a3565b60405180910390f35b610315600480360381019061031091906119be565b61078c565b60405161032291906119a3565b60405180910390f35b61034560048036038101906103409190611a6e565b6107b1565b005b610361600480360381019061035c9190611a6e565b610f63565b60405161036e91906119a3565b60405180910390f35b61037f610f88565b60405161038c9190611a17565b60405180910390f35b6103af60048036038101906103aa9190611aae565b610fac565b6040516103bc91906119a3565b60405180910390f35b6103cd611007565b6040516103da91906119a3565b60405180910390f35b6103fd60048036038101906103f89190611824565b61100c565b60405161040a91906119a3565b60405180910390f35b61042d60048036038101906104289190611a6e565b611024565b005b6104376116d4565b6040516104449190611b0f565b60405180910390f35b60008054906101000a900473ffffffffffffffffffffffffffffffffffffffff1681565b6060600660008373ffffffffffffffffffffffffffffffffffffffff1673ffffffffffffffffffffffffffffffffffffffff1681526020019081526020016000208054806020026020016040519081016040528092919081815260200182805480156104fc57602002820191906000526020600020905b8154815260200190600101908083116104e8575b50505050509050919050565b60046020528060005260406000206000915090505481565b6006602052816000526040600020818154811061053c57600080fd5b90600052602060002001600091509150505481565b7ffaa623ff490ff9197b5ad863cd7f72b33e2e131994d09bd7260d7cd680faad7981565b600060046000838152602001908152602001600020549050919050565b7f300f9ae985dc711960f7a4d1dd013f9c19ecf40bff149522ab7523b2187a384660008054906101000a900473ffffffffffffffffffffffffffffffffffffffff1673ffffffffffffffffffffffffffffffffffffffff166391d1485482336040518363ffffffff1660e01b815260040161060e929190611b39565b602060405180830381865afa15801561062b573d6000803e3d6000fd5b505050506040513d601f19601f8201168201806040525081019061064f9190611b9a565b61068e576040517f08c379a000000000000000000000000000000000000000000000000000000000815260040161068590611c4a565b60405180910390fd5b600660008373ffffffffffffffffffffffffffffffffffffffff1673ffffffffffffffffffffffffffffffffffffffff16815260200190815260200160002060006106d991906116fa565b5050565b7f850d585eb7f024ccee5e68e55f2c26cc72e1e6ee456acf62135757a5eb9d4a1081565b600260009054906101000a900473ffffffffffffffffffffffffffffffffffffffff1681565b60076020528060005260406000206000915090505481565b7f07777a76947b185654bacbede92fa7043b0ec4c08f225b10ec1e040f321897bb81565b60006004600062015180426107789190611cc8565b815260200190815260200160002054905090565b6005602052816000526040600020602052806000526040600020600091509150505481565b7ffaa623ff490ff9197b5ad863cd7f72b33e2e131994d09bd7260d7cd680faad7960008054906101000a900473ffffffffffffffffffffffffffffffffffffffff1673ffffffffffffffffffffffffffffffffffffffff166391d1485482336040518363ffffffff1660e01b815260040161082d929190611b39565b602060405180830381865afa15801561084a573d6000803e3d6000fd5b505050506040513d601f19601f8201168201806040525081019061086e9190611b9a565b156108ae576040517f08c379a00000000000000000000000000000000000000000000000000000000081526004016108a590611d45565b60405180910390fd5b600260009054906101000a900473ffffffffffffffffffffffffffffffffffffffff1673ffffffffffffffffffffffffffffffffffffffff166309b3d75e6040518163ffffffff1660e01b8152600401602060405180830381865afa15801561091b573d6000803e3d6000fd5b505050506040513d601f19601f8201168201806040525081019061093f9190611d7a565b831115610981576040517f08c379a000000000000000000000000000000000000000000000000000000000815260040161097890611df3565b60405180910390fd5b600082116109c4576040517f08c379a00000000000000000000000000000000000000000000000000000000081526004016109bb90611e5f565b60405180910390fd5b62015180600760003373ffffffffffffffffffffffffffffffffffffffff1673ffffffffffffffffffffffffffffffffffffffff16815260200190815260200160002054610a129190611e7f565b4210610aa2576000600860003373ffffffffffffffffffffffffffffffffffffffff1673ffffffffffffffffffffffffffffffffffffffff1681526020019081526020016000208190555042600760003373ffffffffffffffffffffffffffffffffffffffff1673ffffffffffffffffffffffffffffffffffffffff168152602001908152602001600020819055505b6000600160009054906101000a900473ffffffffffffffffffffffffffffffffffffffff1673ffffffffffffffffffffffffffffffffffffffff166370a08231336040518263ffffffff1660e01b8152600401610aff9190611eb3565b602060405180830381865afa158015610b1c573d6000803e3d6000fd5b505050506040513d601f19601f82011682018060405250810190610b409190611d7a565b6005610b4c9190611ece565b90508083600860003373ffffffffffffffffffffffffffffffffffffffff1673ffffffffffffffffffffffffffffffffffffffff16815260200190815260200160002054610b9a9190611e7f565b1115610bdb576040517f08c379a0000000000000000000000000000000000000000000000000000000008152600401610bd290611f5c565b60405180910390fd5b60006201518042610bec9190611cc8565b90506000600260009054906101000a900473ffffffffffffffffffffffffffffffffffffffff1673ffffffffffffffffffffffffffffffffffffffff16631d45cddc876040518263ffffffff1660e01b8152600401610c4b91906119a3565b600060405180830381865afa158015610c68573d6000803e3d6000fd5b505050506040513d6000823e3d601f19601f82011682018060405250810190610c919190612214565b9050600081602001519050600260009054906101000a900473ffffffffffffffffffffffffffffffffffffffff1673ffffffffffffffffffffffffffffffffffffffff16634ea002a788886040518363ffffffff1660e01b8152600401610cf992919061225d565b600060405180830381600087803b158015610d1357600080fd5b505af1158015610d27573d6000803e3d6000fd5b50505050856003600085815260200190815260200160002060008981526020019081526020016000206000828254610d5f9190611e7f565b9250508190555085600460008581526020019081526020016000206000828254610d899190611e7f565b9250508190555085600560008373ffffffffffffffffffffffffffffffffffffffff1673ffffffffffffffffffffffffffffffffffffffff16815260200190815260200160002060008581526020019081526020016000206000828254610df09190611e7f565b9250508190555085600560008373ffffffffffffffffffffffffffffffffffffffff1673ffffffffffffffffffffffffffffffffffffffff16815260200190815260200160002060008581526020019081526020016000205403610eb557600660008273ffffffffffffffffffffffffffffffffffffffff1673ffffffffffffffffffffffffffffffffffffffff1681526020019081526020016000208390806001815401808255809150506001900390600052602060002001600090919091909150555b85600860003373ffffffffffffffffffffffffffffffffffffffff1673ffffffffffffffffffffffffffffffffffffffff1681526020019081526020016000206000828254610f049190611e7f565b925050819055503373ffffffffffffffffffffffffffffffffffffffff16877f1abe610cf2bf87e57dcc1181fcf5ac0934e843d8344ab9eed6e86c799f62585e88604051610f5291906119a3565b60405180910390a350505050505050565b6003602052816000526040600020602052806000526040600020600091509150505481565b7f300f9ae985dc711960f7a4d1dd013f9c19ecf40bff149522ab7523b2187a384681565b6000600560008373ffffffffffffffffffffffffffffffffffffffff1673ffffffffffffffffffffffffffffffffffffffff168152602001908152602001600020600084815260200190815260200160002054905092915050565b600581565b60086020528060005260406000206000915090505481565b7ffaa623ff490ff9197b5ad863cd7f72b33e2e131994d09bd7260d7cd680faad7960008054906101000a900473ffffffffffffffffffffffffffffffffffffffff1673ffffffffffffffffffffffffffffffffffffffff166391d1485482336040518363ffffffff1660e01b81526004016110a0929190611b39565b602060405180830381865afa1580156110bd573d6000803e3d6000fd5b505050506040513d601f19601f820116820180604052508101906110e19190611b9a565b611120576040517f08c379a000000000000000000000000000000000000000000000000000000000815260040161111790611c4a565b60405180910390fd5b600260009054906101000a900473ffffffffffffffffffffffffffffffffffffffff1673ffffffffffffffffffffffffffffffffffffffff166309b3d75e6040518163ffffffff1660e01b8152600401602060405180830381865afa15801561118d573d6000803e3d6000fd5b505050506040513d601f19601f820116820180604052508101906111b19190611d7a565b8311156111f3576040517f08c379a00000000000000000000000000000000000000000000000000000000081526004016111ea90611df3565b60405180910390fd5b60008211611236576040517f08c379a000000000000000000000000000000000000000000000000000000000815260040161122d90611e5f565b60405180910390fd5b600260009054906101000a900473ffffffffffffffffffffffffffffffffffffffff1673ffffffffffffffffffffffffffffffffffffffff16631d45cddc846040518263ffffffff1660e01b815260040161129191906119a3565b600060405180830381865afa1580156112ae573d6000803e3d6000fd5b505050506040513d6000823e3d601f19601f820116820180604052508101906112d79190612214565b61010001511561131c576040517f08c379a0000000000000000000000000000000000000000000000000000000008152600401611313906122d2565b60405180910390fd5b6000620151804261132d9190611cc8565b90506000600260009054906101000a900473ffffffffffffffffffffffffffffffffffffffff1673ffffffffffffffffffffffffffffffffffffffff16631d45cddc866040518263ffffffff1660e01b815260040161138c91906119a3565b600060405180830381865afa1580156113a9573d6000803e3d6000fd5b505050506040513d6000823e3d601f19601f820116820180604052508101906113d29190612214565b602001519050600260009054906101000a900473ffffffffffffffffffffffffffffffffffffffff1673ffffffffffffffffffffffffffffffffffffffff16634ea002a786866040518363ffffffff1660e01b815260040161143592919061225d565b600060405180830381600087803b15801561144f57600080fd5b505af1158015611463573d6000803e3d6000fd5b5050505083600360008481526020019081526020016000206000878152602001908152602001600020600082825461149b9190611e7f565b92505081905550836004600084815260200190815260200160002060008282546114c59190611e7f565b9250508190555083600560008373ffffffffffffffffffffffffffffffffffffffff1673ffffffffffffffffffffffffffffffffffffffff1681526020019081526020016000206000848152602001908152602001600020600082825461152c9190611e7f565b92505081905550600260009054906101000a900473ffffffffffffffffffffffffffffffffffffffff1673ffffffffffffffffffffffffffffffffffffffff1663ae96db0c866040518263ffffffff1660e01b815260040161158e91906119a3565b600060405180830381600087803b1580156115a857600080fd5b505af11580156115bc573d6000803e3d6000fd5b5050505083600560008373ffffffffffffffffffffffffffffffffffffffff1673ffffffffffffffffffffffffffffffffffffffff1681526020019081526020016000206000848152602001908152602001600020540361167e57600660008273ffffffffffffffffffffffffffffffffffffffff1673ffffffffffffffffffffffffffffffffffffffff1681526020019081526020016000208290806001815401808255809150506001900390600052602060002001600090919091909150555b3373ffffffffffffffffffffffffffffffffffffffff16857f1abe610cf2bf87e57dcc1181fcf5ac0934e843d8344ab9eed6e86c799f62585e866040516116c591906119a3565b60405180910390a35050505050565b600160009054906101000a900473ffffffffffffffffffffffffffffffffffffffff1681565b5080546000825590600052602060002090810190611718919061171b565b50565b5b8082111561173457600081600090555060010161171c565b5090565b600073ffffffffffffffffffffffffffffffffffffffff82169050919050565b6000819050919050565b600061177d61177861177384611738565b611758565b611738565b9050919050565b600061178f82611762565b9050919050565b60006117a182611784565b9050919050565b6117b181611796565b82525050565b60006020820190506117cc60008301846117a8565b92915050565b6000604051905090565b600080fd5b600080fd5b60006117f182611738565b9050919050565b611801816117e6565b811461180c57600080fd5b50565b60008135905061181e816117f8565b92915050565b60006020828403121561183a576118396117dc565b5b60006118488482850161180f565b91505092915050565b600081519050919050565b600082825260208201905092915050565b6000819050602082019050919050565b6000819050919050565b6118908161187d565b82525050565b60006118a28383611887565b60208301905092915050565b6000602082019050919050565b60006118c682611851565b6118d0818561185c565b93506118db8361186d565b8060005b8381101561190c5781516118f38882611896565b97506118fe836118ae565b9250506001810190506118df565b5085935050505092915050565b6000602082019050818103600083015261193381846118bb565b905092915050565b6119448161187d565b811461194f57600080fd5b50565b6000813590506119618161193b565b92915050565b60006020828403121561197d5761197c6117dc565b5b600061198b84828501611952565b91505092915050565b61199d8161187d565b82525050565b60006020820190506119b86000830184611994565b92915050565b600080604083850312156119d5576119d46117dc565b5b60006119e38582860161180f565b92505060206119f485828601611952565b9150509250929050565b6000819050919050565b611a11816119fe565b82525050565b6000602082019050611a2c6000830184611a08565b92915050565b6000611a3d82611784565b9050919050565b611a4d81611a32565b82525050565b6000602082019050611a686000830184611a44565b92915050565b60008060408385031215611a8557611a846117dc565b5b6000611a9385828601611952565b9250506020611aa485828601611952565b9150509250929050565b60008060408385031215611ac557611ac46117dc565b5b6000611ad385828601611952565b9250506020611ae48582860161180f565b9150509250929050565b6000611af982611784565b9050919050565b611b0981611aee565b82525050565b6000602082019050611b246000830184611b00565b92915050565b611b33816117e6565b82525050565b6000604082019050611b4e6000830185611a08565b611b5b6020830184611b2a565b9392505050565b60008115159050919050565b611b7781611b62565b8114611b8257600080fd5b50565b600081519050611b9481611b6e565b92915050565b600060208284031215611bb057611baf6117dc565b5b6000611bbe84828501611b85565b91505092915050565b600082825260208201905092915050565b7f43616c6c657220646f6573206e6f74206861766520726571756972656420726f60008201527f6c65000000000000000000000000000000000000000000000000000000000000602082015250565b6000611c34602283611bc7565b9150611c3f82611bd8565b604082019050919050565b60006020820190508181036000830152611c6381611c27565b9050919050565b7f4e487b7100000000000000000000000000000000000000000000000000000000600052601260045260246000fd5b7f4e487b7100000000000000000000000000000000000000000000000000000000600052601160045260246000fd5b6000611cd38261187d565b9150611cde8361187d565b925082611cee57611ced611c6a565b5b828204905092915050565b7f4149206167656e742063616e277420766f7465206469726563746c7900000000600082015250565b6000611d2f601c83611bc7565b9150611d3a82611cf9565b602082019050919050565b60006020820190508181036000830152611d5e81611d22565b9050919050565b600081519050611d748161193b565b92915050565b600060208284031215611d9057611d8f6117dc565b5b6000611d9e84828501611d65565b91505092915050565b7f506f737420646f6573206e6f7420657869737400000000000000000000000000600082015250565b6000611ddd601383611bc7565b9150611de882611da7565b602082019050919050565b60006020820190508181036000830152611e0c81611dd0565b9050919050565b7f416d6f756e74206d7573742062652067726561746572207468616e2030000000600082015250565b6000611e49601d83611bc7565b9150611e5482611e13565b602082019050919050565b60006020820190508181036000830152611e7881611e3c565b9050919050565b6000611e8a8261187d565b9150611e958361187d565b9250828201905080821115611ead57611eac611c99565b5b92915050565b6000602082019050611ec86000830184611b2a565b92915050565b6000611ed98261187d565b9150611ee48361187d565b9250828202611ef28161187d565b91508282048414831517611f0957611f08611c99565b5b5092915050565b7f45786365656473206461696c7920766f7465206c696d69740000000000000000600082015250565b6000611f46601883611bc7565b9150611f5182611f10565b602082019050919050565b60006020820190508181036000830152611f7581611f39565b9050919050565b600080fd5b6000601f19601f8301169050919050565b7f4e487b7100000000000000000000000000000000000000000000000000000000600052604160045260246000fd5b611fca82611f81565b810181811067ffffffffffffffff82111715611fe957611fe8611f92565b5b80604052505050565b6000611ffc6117d2565b90506120088282611fc1565b919050565b600080fd5b600081519050612021816117f8565b92915050565b600080fd5b600080fd5b600067ffffffffffffffff82111561204c5761204b611f92565b5b61205582611f81565b9050602081019050919050565b60005b83811015612080578082015181840152602081019050612065565b60008484015250505050565b600061209f61209a84612031565b611ff2565b9050828152602081018484840111156120bb576120ba61202c565b5b6120c6848285612062565b509392505050565b600082601f8301126120e3576120e2612027565b5b81516120f384826020860161208c565b91505092915050565b6000610120828403121561211357612112611f7c565b5b61211e610120611ff2565b9050600061212e84828501611d65565b600083015250602061214284828501612012565b602083015250604082015167ffffffffffffffff8111156121665761216561200d565b5b612172848285016120ce565b604083015250606061218684828501611d65565b606083015250608061219a84828501611d65565b60808301525060a06121ae84828501611d65565b60a08301525060c082015167ffffffffffffffff8111156121d2576121d161200d565b5b6121de848285016120ce565b60c08301525060e06121f284828501611b85565b60e08301525061010061220784828501611b85565b6101008301525092915050565b60006020828403121561222a576122296117dc565b5b600082015167ffffffffffffffff811115612248576122476117e1565b5b612254848285016120fc565b91505092915050565b60006040820190506122726000830185611994565b61227f6020830184611994565b9392505050565b7f41492063616e206f6e6c7920766f7465206f6e63652070657220706f73740000600082015250565b60006122bc601e83611bc7565b91506122c782612286565b602082019050919050565b600060208201905081810360008301526122eb816122af565b905091905056fea2646970667358221220e58dd6189b2deefd26875ae3cca661de506e39e854daac0e42616fa04c37341964736f6c634300081c0033",
  "linkReferences": {},
  "deployedLinkReferences": {}
}